:020000040800F2
:10000000182700203D9B0008E1220008E322000899
:10001000E7220008EB220008EF22000800000000A1
:10002000000000000000000000000000F5220008B1
:10003000F322000800000000F7220008F92200085F
:10004000FB220008FD220008FF220008012300080F
:10005000192300081B230008057000088D70000894
:100060001D2300081F230008212300082323000864
:100070002523000827230008292300082B23000834
:100080002D2300082F230008312300083323000804
:100090003523000837230008392300087F9400081F
:1000A0003B2300083D2300083F23000841230008AC
:1000B000AB540008432300084523000847230008E9
:1000C000492300084B2300084D2300084F23000854
:1000D00051230008BF94000863740008A356000869
:1000E000857900085323000855230008572300088A
:1000F000592300085B2300085D2300085F230008E4
:1001000061230008632300086523000867230008B3
:10011000692300086B2300086D2300086F23000883
:100120007123000873230008752300087723000853
:10013000DFF80CD00AF074F800480047F9530008C3
:100140001827002010B5012000F08AFE002000F0E2
:1001500087FE10BD2249086070472149091F0860C9
:1001600070471F49843108607047014600201D4ACE
:1001700010884FF67F42104008431A4A108070479B
:1001800001460020174A10884FF68072104008433D
:10019000144A10807047134A2C3A81527047014626
:1001A00010482C38085A70470D489C300068C0B27F
:1001B00070470C480830008840F0010009490831B8
:1001C000088070470648A0300068C0B270470548F4
:1001D0000830008840F0020002490831088070476A
:1001E00004860D422C6C0040002046490860091D21
:1001F0000860091D0860091D086043484149143121
:1002000008607047817900293ED03E49096802683C
:1002100091433C4A1160111D096802689143394AB3
:10022000121D11600179121F895802681143027969
:10023000344BD15033490831096802689143314A3F
:1002400008321160111D0968026891432D4A0C3271
:100250001160417910290ED1111F096802681143FC
:10026000284A08321160111D096802681143254AA5
:100270000C32116010E04179224A8958026811431A
:100280004279204BD15007E001791E4A8958026813
:10029000914302791B4BD1507047002101600171DD
:1002A0000C21417100218171704716491031096894
:1002B0000143144A10321160704701460020114A70
:1002C000143212680A4201D0012000E00020704779
:1002D0000C49143108607047014600200022094B88
:1002E0001B6803EA0102074B14331B680B4202D060
:1002F0000AB1012000E00020704702491431086073
:100300007047000000040140FFFF07001049096822
:1003100001F038010E4A116011460968014311606D
:1003200070470B49096821F00801094A116011461C
:1003300009680143116070470549096821F01001FF
:10034000034A1160114609680143116070470000BB
:100350000020024010B50446C549601A8C422FD0D7
:1003600009DCC448201810D0B0F5806F16D0B0F565
:10037000006F4AD11BE0B0F5806F2AD0B0F5006F56
:1003800030D0B0F5406F40D135E00121042000F0BD
:100390004DFD0021042000F049FD37E00121082037
:1003A00000F044FD0021082000F040FD2EE0012176
:1003B000102000F03BFD0021102000F037FD25E06B
:1003C0000121202000F032FD0021202000F02EFD30
:1003D0001CE00121402000F029FD0021402000F018
:1003E00025FD13E00121802000F020FD0021802068
:1003F00000F01CFD0AE00121080200F017FD0021B9
:100400004FF4807000F012FD00E000BF00BF10BD8F
:1004100010B50121084600F009FD0021012000F07F
:1004200005FD10BD2DE9F041024600250026002003
:1004300000230024002791F803C00CF00F0591F869
:1004400003C01CF0100F03D091F802C04CEA050560
:1004500091F800C0BCF1000F31D0146800202BE0EF
:100460004FF0010C0CFA00F3B1F800C00CEA0306DF
:100470009E4220D183004FF00F0C0CFA03F7BC43CF
:1004800005FA03FC4CEA040491F803C0BCF1280F00
:1004900006D14FF0010C0CFA00FCC2F814C00AE0BF
:1004A00091F803C0BCF1480F05D14FF0010C0CFAD4
:1004B00000FCC2F810C0401C0828D1D31460B1F869
:1004C00000C0BCF1FF0F34DD546800202EE000F1C5
:1004D000080C4FF0010808FA0CF3B1F800C00CEA60
:1004E00003069E4221D183004FF00F0C0CFA03F754
:1004F000BC4305FA03FC4CEA040491F803C0BCF1C8
:10050000280F05D100F1080C08FA0CF8C2F8148085
:1005100091F803C0BCF1480F07D100F1080C4FF06F
:10052000010808FA0CF8C2F81080401C0828CED345
:100530005460BDE8F0814FF6FF71018002218170A7
:100540000421C17070470246002093680B4201D01D
:10055000012000E0002070470146886880B27047A3
:1005600002460020D3680B4201D0012000E00020A9
:1005700070470146C86880B27047016170474161A9
:1005800070470AB1016100E041617047C160704786
:100590004FF480320A43826181618261826982699B
:1005A000704702460020344B18684FF6807318409D
:1005B00040EA02100843304B186070472F49C86169
:1005C0007047F0B50A4600230024002100252A4E7A
:1005D0007168C0F3034583B200F44016B6F5401FBE
:1005E00008D121F07061244E766826F07066224FA3
:1005F0007E6012E000F48016B6F5801F06D1032657
:1006000006FA05F4A14341F0706106E0460D36019B
:1006100003FA06F6B14341F0706122B1460D36018E
:1006200003FA06F63143144E7160F0BD30B5002276
:100630008B071C0F0F2303FA04F20F4B08338C10A7
:1006400053F8243093430C4C08348D1044F8253073
:1006500023468C1053F824308C07240F00FA04F43E
:100660002343054C08348D1044F8253030BD00007C
:100670000014014000F8FEBF0000014000002042CD
:100680000020411EEE4A11606FF07042ED49C1F842
:1006900084204FF0FF314FF0E022C2F880126FF05B
:1006A0007042E9490A6000BF04E00022E74941F8CE
:1006B0002020401C0F28F8D3704700204FF0206105
:1006C000E34A11600021121D1160E249121D116000
:1006D0000021121D1160121D116000BF05E00022F3
:1006E000DB49143141F82020401C0328F7D30021B6
:1006F000D74A20321160491E121D1160121D11606F
:10070000121D11607047D3490143D14A083211606C
:100710007047F0B500210022002300250F24C67881
:10072000002E36D0CA4E0836366806F4E066C6F5A6
:10073000E066310AC1F10405CC40467806FA05F1BD
:1007400086782640314309010678B607F60EB14097
:10075000BE4E0778BF1056F827200678B607F70E6A
:10076000FF2606FA07F39A4319400A43B74E077863
:10077000BF1046F82720067806F01F070126BE4066
:1007800007787F114FF0E02C0CEB8707C7F800616A
:100790000BE0067806F01F070126BE40A84F90F830
:1007A00000C04FEA6C1C47F82C60F0BD00210170BE
:1007B00041708170C170704710B509F0A8F910BD83
:1007C00010B509F0A2F910BD10B509F0A5F910BDDA
:1007D00010B509F0A3F910BD10B50446200109F0C9
:1007E000A2F910BD10B509F0A1F910BD9848006834
:1007F000C0F30930704710B501460020002201F017
:100800001F04012303FA04F28D4B80334C1153F87B
:1008100024301340934201D1012000E0002010BD9C
:100820008D490860704700F01F0201219140864AFF
:10083000121F431142F82310704785480068C0F327
:100840000900704710B501460020002201F01F0486
:10085000012303FA04F27C4B7C334C1153F824300F
:100860001340934201D1012000E0002010BD7848E0
:10087000001F00687047794A0A400243744B1B1DF1
:100880001A6070477348001D71490831086070474D
:100890007048401C6E4908310860704739B16C4A95
:1008A0000C32126802436A4B0C331A6006E0684A45
:1008B0000C3212688243664B0C331A60704710B5D5
:1008C000002200F01F04012303FA04F239B1604B47
:1008D00020331B6813435E4C2034236006E05C4BDE
:1008E00020331B6893435A4C2034236010BDF0B56D
:1008F00003460C4615460020FF2200260021544FD7
:1009000008373F6807F4E067C7F5E067390AC1F1C7
:100910000400CA4004FA00F105EA0207394309015C
:1009200003F0C0008009C3F30122D700B9404FEAA9
:10093000C20CFF2707FA0CF6454F143757F8207002
:10094000B743DFF80CC10CF1140C4CF8207067466B
:1009500057F820700F434CF82070F0BD10B50246D8
:10096000002000230021910A01F00F01012404FA64
:1009700001F1374C2034246804EA01038B4201D191
:10098000012000E0002010BD002100F01F01304ACE
:10099000126801238B401A432D4B1A60704710B523
:1009A000002100F01F012A4A12684B1E01249C40BE
:1009B0002243274B1A6010BD10B5024600200023C9
:1009C0000021C2F38331012404FA01F1204C2034C8
:1009D000246804EA01038B4201D1012000E00020D9
:1009E00010BD30B50146002000220023C1F3814232
:1009F000C1F301531AB9164C2834206811E0012ABA
:100A00000CD1134C24342468DD0024FA05F0022BA9
:100A100002D000F00F0004E0C0B202E00C4C2C3415
:100A2000206830BD014600200022C1F380521AB96F
:100A3000074B3033186802E0054B343318687047B1
:100A400080E100E000E100E084E200E000E400E09A
:100A500004ED00E00000FA0500EF00E080FFFF1F5A
:100A600010B50121080700F0EEF900214FF0805089
:100A700000F0E9F910BD284908627047264908616D
:100A8000704701460020254A106820F0E000084326
:100A90001060704722490860704770B505460E46E1
:100AA00000241E48046824F003042C4304601D48FD
:100AB000006840F004001B490860012E02D108F0D4
:100AC000FFFF01E008F0FEFF70BD10B5134800689D
:100AD00040F00400114908600846006840F0020038
:100AE00008601048006840F004000E49086008F0F3
:100AF000E7FF10BD01460020084A52680A4201D0B3
:100B0000012000E0002070470449096841EA8001A3
:100B1000024A11607047000000000E420070004061
:100B2000A0000E4210ED00E0DC48006840F001003B
:100B3000DA49086008464068D9490840D749486002
:100B400008460068D7490840D4490860084600684C
:100B500020F4802008600846406820F4FE004860C9
:100B6000002088607047CD49096821F48031CB4A64
:100B700011601146096821F480211160B0F5803FB1
:100B800003D0B0F5802F0ED106E0C449096841F4C6
:100B90008031C24A116007E0C049096841F4A021D0
:100BA000BE4A116000E000BF00BF704710B50146AB
:100BB0000022002300204A11012A02D1B74C2368E9
:100BC00006E0022A02D1B54C236A01E0B34C636A05
:100BD00001F01F02012494401C4201D0012000E0DA
:100BE000002010BD38B5002000900024002500BF73
:100BF0003120FFF7DBFF05460098401C00901DB92F
:100C00000098B0F5A06FF3D13120FFF7CFFF08B106
:100C1000012400E00024204638BD014600209F4A00
:100C2000106820F0F80040EAC100106070479E494B
:100C30000860704702460020984B586820F47C10EA
:100C400042EA01031843954B58607047964908667D
:100C5000704701460020914A506820F00300084385
:100C6000506070478D48406800F00C0070470146A6
:100C700000208A4A506820F0F00008435060704716
:100C800001460020854A506820F4E0600843506027
:100C9000704701460020814A506820F4605040EAC5
:100CA000C1005060704729B17C4A527A02437B4BA5
:100CB0005A7204E0794A527A8243784B5A727047EA
:100CC0007A490860704701460020744A506820F451
:100CD00040400843506070470021754A11706F4AC8
:100CE00082F82010012802D0042808D103E0012155
:100CF0006F4A117004E005216D4A117000E000BFD9
:100D000000BF70476B49086070476449096A014336
:100D1000624A11627047674944390860704730B5CC
:100D200000210022002400235C4D6D6805F00C01B9
:100D300021B1042905D0082923D105E05E4D0560C5
:100D400022E05D4D05601FE0544D6D6805F47012A2
:100D5000022505EB9242514D6D6805F480341CB9B3
:100D6000564D554305600BE04C4D6D6815F4003F42
:100D700003D0524D5543056002E04F4D5543056089
:100D800002E04D4D056000BF00BF444D6D6805F0A9
:100D9000F00109094A4D6B5C0568DD4045603F4D37
:100DA0006D6805F4E061090A454D6B5C4568DD40FE
:100DB00085603A4D6D6805F46051C90A404D6B5C21
:100DC0004568DD40C560354D6D6805F44041890BCF
:100DD0003C4D6B5CC568B5FBF3F5056130BD29B1D1
:100DE0002E4A526902432D4B5A6104E02B4A526944
:100DF00082432A4B5A61704729B1284A92690243BB
:100E0000264B9A6104E0254A92698243234B9A61FA
:100E1000704729B1214AD2690243204BDA6104E0CC
:100E20001E4AD26982431D4BDA61704729B11B4AC1
:100E3000D2680243194BDA6004E0184AD268824350
:100E4000164BDA60704729B1144A12690243134BFA
:100E50001A6104E0114A12698243104B1A6170470B
:100E600014494039086070470F49C86470470B49FE
:100E7000C87170470948406A40F08070074948626D
:100E8000704701460020054A92680A4201D00120BD
:100E900000E000207047014988727047001002404E
:100EA0000000FFF8FFFFF6FE00004242D800424279
:100EB000201002408004424200127A0000093D00E6
:100EC000C0AC0008D0AC000829B14F4A12880243D8
:100ED0004D4B1A8004E04C4A128882434A4B1A80D8
:100EE00070474948001D008840F010004649091D20
:100EF000088070474448001D00884FF6EF71084095
:100F00004149091D0880704700213F481C30018875
:100F1000001F008841EA0040704700B50246FFF715
:100F2000E0FF100C384918310880091D0A80FFF7CE
:100F3000E1FF00BD00B50246FFF7D3FFC2F3034057
:100F4000314908310880091D0A80FFF7D3FF00BD31
:100F500000B50246FFF7C5FF100C2B492031088071
:100F6000091D0A80FFF7C6FF00BD00202649103189
:100F700009880907080B2449143109880843704778
:100F800000BF2148001D008810F0200FF9D07047E5
:100F90001D48001D00884FF6F77108401A49091DC9
:100FA000088000BF1848001D008810F0080FF9D015
:100FB000704701460020144A121D12880A4201D0CF
:100FC000012000E0002070470F49091D0988814376
:100FD0000D4A121D11807047014600200A4A121D59
:100FE00012880A40D0B2084A12880A4202D008B1D8
:100FF000012000E0002070470349091D0988814352
:10100000014A121D118070470028004010B50446A7
:10101000BD4820180FD0B0F5806F16D0B0F5784FCE
:101020001DD101210803FFF701FF00214FF480507B
:10103000FFF7FCFE14E001218803FFF704FF002105
:101040004FF48040FFF7FFFE0AE00121C803FFF7DD
:10105000FAFE00214FF40040FFF7F5FE00E000BF6C
:1010600000BF10BD10B50022028802F441520B8867
:101070004C8823438C882343CC8823430C89234307
:101080004C8923438C892343CC8923431A43028010
:10109000838B4FF2FF74234083830B8A038210BD3E
:1010A0002DE9F04786B005460C464FF000090227AF
:1010B0004FF000084FF0010A0026A88B4FF24001C4
:1010C0000840A88302202884B5F81C9020890228B3
:1010D00001D100BF31E0A08810B94FF0010A01E052
:1010E0004FF0020A01A8FFF71AFEE088B0F5007F72
:1010F0000AD1019800EB8000400021890902B0FB71
:10110000F1F0401D86B20BE04FEA4A1021894843B6
:10111000019901EB81014900B1FBF0F0401D86B25D
:101120000A20B6FBF0F606F00108A6EB0800C0F3B3
:101130004F074FF6FF7000EA0828022F01DBFF2F50
:1011400002DD02274FF0000847EA0800E188084363
:101150002884208840F4006061880843A1880843FF
:101160006189084340EA0909A5F81C9006B0BDE86A
:10117000F0870021018041808180C180018141810F
:101180008181C18107210182704700210180418056
:101190008180C1800221018100214181704721B1FC
:1011A000028842F04002028004E002884FF6BF73DA
:1011B0001A400280704721B1828B42F480628283A0
:1011C00004E0828B4FF6FF331A408283704730B5BC
:1011D000002400230C110125A540ABB21AB185886B
:1011E0001D43858002E085889D43858030BD1AB10E
:1011F00083880B43838002E083888B43838070471E
:1012000081817047014688897047A1F57E42FF3A87
:1012100004D0028842F48072028004E002884FF613
:10122000FF631A400280704721B1828842F00402B5
:10123000828004E082884FF6FB731A4082807047F8
:1012400002884FF2FF731A40028002880A4302802C
:101250007047018841F480510180704721B10288B4
:1012600042F40052028004E002884DF6FF731A40F7
:101270000280704702460020012901D0108B00E057
:10128000908A70470146088A7047B1F5804F04D1B3
:10129000028842F48042028004E002884BF6FF7329
:1012A0001A40028070470246002013890B4201D089
:1012B000012000E000207047CA4302817047F0B56A
:1012C0000246002000240023002501F00F0701261C
:1012D000BE40B4B20B1101269E40B3B2968806EA16
:1012E00003051689264202D00DB1012000E000203E
:1012F000F0BD10B5002201F00F040123A3409AB203
:10130000D343038110BD000000C8FFBF10B50446E1
:10131000F749601A8C4245D00CDCB4F1804F1DD0E7
:10132000F448201823D0B0F5806F29D0B0F5006FB5
:1013300054D12EE0B0F5806F3DD0B0F58E3F03D094
:10134000B0F5923F4AD13FE00121C802FFF76EFDA0
:1013500000214FF40060FFF769FD40E001210846DD
:10136000FFF771FD00210120FFF76DFD37E001213E
:101370000220FFF768FD00210220FFF764FD2EE048
:1013800001210420FFF75FFD00210420FFF75BFD32
:1013900025E001210820FFF756FD00210820FFF776
:1013A00052FD1CE001211020FFF74DFD002110200F
:1013B000FFF749FD13E001212020FFF744FD002144
:1013C0002020FFF740FD0AE001214803FFF72EFD32
:1013D00000214FF40050FFF729FD00E000BF00BFDF
:1013E00010BD028802F08F020280CA884B881A431F
:1013F00003881A4302808A8882850A88028501222E
:101400008282BD4A904202D0BC4A904201D10A7AFF
:101410000286704770B5002400220023058C4FF629
:10142000FE7635400584028C8388048B4FF68F75D9
:101430002C400D882C43751E2A400D892A434D8867
:101440002A43CD888586AC4DA84202D0AB4DA84238
:1014500013D14FF6F7752A404D892A434FF6FB7595
:101460002A408D882A4347F6FF652B4047F6FF55F3
:101470002B408D892B43CD892B43838004830284A9
:1014800070BD70B5002400220023058C4FF6EF7666
:1014900035400584028C8388048B48F6FF752C4008
:1014A0000D884FF6FF7606EA05252C434FF6DF75CB
:1014B0002A400D8906EA05152A434D8806EA0515D6
:1014C0002A43CD8805878C4DA84202D08B4DA84277
:1014D0001DD14FF67F752A404D894FF6FF7606EAFB
:1014E00005152A434FF6BF752A408D8806EA051573
:1014F0002A4347F6FF352B4047F2FF752B408D8975
:1015000006EA85052B43CD8906EA85052B438380B2
:101510000483028470BD70B5002400220023058C72
:101520004FF6FF6635400584028C8388848B4FF626
:101530008F752C400D882C434FF6FF552A400D899E
:101540004FF6FF7606EA05252A434D8806EA05256B
:101550002A43CD888587684DA84202D0674DA842AE
:101560001DD14FF2FF752A404D894FF6FF7606EAEE
:1015700005252A434FF6FF352A408D8806EA0525C2
:101580002A4346F6FF752B4045F6FF752B408D89A3
:1015900006EA05152B43CD8906EA05152B43838002
:1015A0008483028470BD70B5002400220023058C62
:1015B0004EF6FF7635400584028C8388848B48F68E
:1015C000FF752C400D884FF6FF7606EA05252C4363
:1015D0004DF6FF752A400D8906EA05352A434D88E8
:1015E00006EA05352A43CD88A0F84050424DA8426E
:1015F00002D0424DA84207D1C3F30D038D894FF6A7
:10160000FF7606EA85152B4383808483028470BDB0
:10161000828B4FF2FF331A408283828B4FF6FF7327
:1016200003EA01231A4382837047F0B50C4615463E
:10163000002100220026078C4EF6FF7C07EA0C07EB
:101640000784818B028C4FF6FF7707EA043640F659
:10165000FF4739404FF6FF7707EA05274FF6FF7C33
:101660000CEA033C47EA0C0739434DF6FF773A4052
:1016700046F480573A4381830284F0BD828B4FF653
:10168000F3731A408283828B0A4382837047F0B5DA
:101690000C461546002100220026078C4FF6FF6CF1
:1016A00007EA0C070784818B028C4FF6FF7707EA65
:1016B00004264FF60C7739404FF6FF7707EA0317F9
:1016C0002F4339434FF6FF573A4046F480773A4369
:1016D00081830284F0BD028B4FF2FF331A400283F4
:1016E000028B4FF6FF7303EA01231A43028370470C
:1016F0000010004000FCFFBF002C014000340140FE
:10170000F0B50C461546002100220026078C4FF646
:10171000EF7C07EA0C070784018B028C4FF6FF77FA
:1017200007EA041640F6FF4739404FF6FF7707EA0D
:10173000033739434FF6FF7707EA052739434FF65A
:10174000DF773A4046F010073A4301830284F0BD48
:10175000028B4FF6F3731A400283028B0A43028313
:101760007047F0B50C46154600210022068C4FF656
:10177000FE773E400684018B028C4FF60C7631409A
:101780007E1C06EA03162E4331437E1E324044F08F
:101790000106324301830284F0BD70B505460C4654
:1017A000208850B92389A28861882846FFF7D9FF8D
:1017B000E1882846FFF7CCFF25E0208804280AD1DD
:1017C0002389A28861882846FFF79AFFE188284686
:1017D000FFF781FF17E0208808280AD12389A28813
:1017E00061882846FFF753FFE1882846FFF746FF48
:1017F00009E02389A28861882846FFF716FFE1885F
:101800002846FFF705FF70BD2DE9F04105460C465F
:1018100000260127608808B9022600E00026A0887B
:10182000012801D1022700E001272088A0B92389DF
:10183000A28861882846FFF794FFE1882846FFF7D1
:1018400087FF23893A4631462846FFF759FFE1884A
:101850002846FFF740FF13E02389A28861882846C5
:10186000FFF74EFFE1882846FFF735FF23893A4608
:1018700031462846FFF775FFE1882846FFF768FFE5
:10188000BDE8F0810A884B881A438B881A43CB88BD
:101890001A430B891A434B891A438B891A43A0F8C0
:1018A000442070474FF6FF71818000210180C18084
:1018B0004180017270470021018041808180C18098
:1018C000018141818181C181704700210180418076
:1018D000012181800021C1800181704700210180A8
:1018E00041808180C180018141818181704721B126
:1018F000028842F00102028004E0028840F2FE33D6
:101900001A400280704731B1B0F8442042F40042DE
:10191000A0F8442005E0B0F84420C2F30E02A0F87D
:10192000442070471AB183890B43838102E0838985
:101930008B43838170478182704741EA0203A0F89C
:10194000483070471AB183890B43838102E0838951
:101950008B438381704701894FF6F87211400181F2
:1019600070470A46002101894FF68F7319401143D1
:101970000181704730B504460D4629462046FFF7E1
:10198000F0FF208940F00700208130BD2DE9F041B3
:1019900004460D4616461F46602D06D13B460122E1
:1019A00031462046FFF7ACFE05E03B4601223146BA
:1019B0002046FFF7D6FE29462046FFF7D2FF2089B2
:1019C00040F007002081BDE8F08170B50C46002191
:1019D0000189C9B244EA02054FF6FF7606EA0326FA
:1019E00035432943018170BD2DE9F04105460E467E
:1019F00017469846002443463A4631462846FFF7A4
:101A0000E4FF2C894FF6F870044044F007044FF6C9
:101A10008F70044044F070042C81BDE8F081F0B573
:101A200004460D4616461F463B463246294620468A
:101A3000FFF7CBFF208940F480402081F0BD018575
:101A4000828270470A460021018840F28F33194094
:101A5000114301807047F0B50C4615461E46002123
:101A6000002200230189028B038C4FF6F87739405E
:101A700021434FF6FC473A4040F201173A434FF6F4
:101A8000DD773B404FF6FF7707EA06172F433B43CE
:101A9000018102830384F0BD0A460021018B4FF6C9
:101AA0008F7319401143018370470A460021018B4F
:101AB00048F6FF7319404FF6FF7303EA02231943F8
:101AC000018370470A460021818B4FF68F731940BE
:101AD0001143818370470A460021818B48F6FF73CA
:101AE00019404FF6FF7303EA0223194381837047BD
:101AF00021B1028842F08002028004E0028840F2B4
:101B00007F331A400280704721B1828842F004027C
:101B1000828004E082884FF6FB731A40828070470F
:101B200021B1828842F00802828004E082884FF668
:101B3000F7731A408280704721B1828842F0010217
:101B4000828004E082884FF6FE731A4082807047DC
:101B50000A460021018B4FF6F773194011430183A8
:101B600070470A460021018B4FF2FF7319404FF670
:101B7000FF7303EA02231943018370470A460021D9
:101B8000818B4FF6F77319401143818370470A46E2
:101B90000021818B4FF2FF7319404FF6FF7303EA68
:101BA00002231943818370470A460021018B4FF6B7
:101BB000FB7319401143018370470A460021018BD2
:101BC0004FF6FF3319404FF6FF7303EA0223194320
:101BD000018370470A460021818B4FF6FB73194041
:101BE0001143818370470A460021818B4FF6FF33F2
:101BF00019404FF6FF7303EA0223194381837047AC
:101C00000A460021018B4FF67F731940114301836F
:101C100070470A460021018BC1F30E014FF6FF7396
:101C200003EA02231943018370470A460021818B8E
:101C30004FF67F7319401143818370470A46002194
:101C4000818BC1F30E014FF6FF7303EA02231943A0
:101C5000818370470A460021018C4FF6FD731940BD
:101C60001143018470470A460021018C4FF6F77337
:101C700019401143018470470A460021018C4FF638
:101C8000DF7319404FF6FF7303EA0213194301840F
:101C900070470A460021018C4FF67F7319404FF6BA
:101CA000FF7303EA02131943018470470A460021B7
:101CB000018C4FF6FF5319404FF6FF7303EA0223DE
:101CC0001943018470470A460021018C4FF2FF73CB
:101CD00019404FF6FF7303EA02231943018470474A
:101CE0000A460021018C4DF6FF7319404FF6FF7331
:101CF00003EA023319430184704710B5038C0124B1
:101D00008C40A3430384038C02FA01F4A4B223435E
:101D1000038410BD10B5038C04248C40A3430384BA
:101D2000038C02FA01F4A4B22343038410BD30B53E
:101D3000038C01248C40A343038409B1082918D1E2
:101D400000F1180303EB61031B684FF68F74234007
:101D500000F1180404EB6104236000F1180303EBA5
:101D600061031B68134300F1180404EB6104236052
:101D70001FE00B1FC3F34E0400F118031B5948F674
:101D8000FF7423400C1FC4F34E0500F11804635187
:101D90000B1FC3F34E0400F118031B594FF6FF74D9
:101DA00004EA022423430C1FC4F34E0500F1180477
:101DB000635130BD21B1028842F00202028004E08A
:101DC000028840F2FD331A400280704721B1028838
:101DD00042F00402028004E0028840F2FB331A4021
:101DE0000280704721B1828842F08002828004E044
:101DF00082884FF67F731A4082807047028840F2D3
:101E0000F7331A40028002880A43028070478288B2
:101E10004FF68F731A40828082880A43828070470F
:101E200002894FF6F8731A40028102890A4302813F
:101E3000704702894FF67F731A40028102890A4374
:101E40000281704781847047818570478186704721
:101E50000187704781877047A0F84010704702885B
:101E6000D2B2028002880A43028070470146888EFF
:101E700070470146088F70470146888F70470146BA
:101E8000B1F8400070470146888C70470146088DC4
:101E9000704702460020138A0B4201D0012000E067
:101EA00000207047CA430282704730B502460020C6
:101EB00000230024158A05EA0103958905EA010437
:101EC00013B10CB1012000E0002030BDCA430282F2
:101ED0007047000010B50446D749601A8C422BD0D9
:101EE00006DCD648201813D0B0F5806F38D119E041
:101EF000B0F5806F2AD0B0F56C4F31D10121880345
:101F0000FEF794FF00214FF48040FEF78FFF28E09A
:101F100001214804FEF797FF00214FF40030FEF73F
:101F200092FF1EE001218804FEF78DFF00214FF48F
:101F30008020FEF788FF14E00121C804FEF783FF2C
:101F400000214FF40020FEF77EFF0AE00121080582
:101F5000FEF779FF00214FF48010FEF774FF00E0D8
:101F600000BF00BF10BD2DE9F04786B005460E4604
:101F70000024A24600BF00BF00272F462C8A4CF643
:101F8000FF700440F08804432C82AC894EF6F310B5
:101F90000440B08831890843718908430443AC8107
:101FA000AC8A4FF6FF400440B0890443AC8201A8DC
:101FB000FEF7B5FEA248874202D1DDF810A001E08D
:101FC000DDF80CA00AEBCA0000EB0A1031688900AA
:101FD000B0FBF1F86420B8FBF0F0040120096421A3
:101FE00001FB1089322000EB0910B0FBF1F000F08A
:101FF0000F0004432C8106B0BDE8F0874FF4165162
:10200000016000218180C18001810C21418100217A
:102010008181704710B502460020108A4FF2FF03FD
:1020200018400B884C8823438C882343CC88234357
:102030001843108210BD0021018041808180C18041
:10204000704721B1828942F40052828104E0828982
:102050004DF6FF731A4082817047F0B503460024A5
:102060000026002500201846C1F3421401F01F0687
:10207000012707FA06F5012C01D10C3004E0022CEF
:1020800001D1103000E014301AB107682F43076007
:1020900002E00768AF430760F0BD1AB1838A0B43C3
:1020A000838202E0838A8B4383827047028A4FF6E1
:1020B000F0731A400282028A0A43028270478289C0
:1020C0004FF2FF731A40828182890A4382817047EE
:1020D00021B1828942F00202828104E082894FF6B6
:1020E000FD731A4082817047028A4FF6DF731A40EF
:1020F0000282028A0A430282704721B1028A42F4B4
:102100008042028204E0028A4BF6FF731A40028288
:102110007047C1F308028280704701468888C0F387
:1021200008007047818941F0010181817047028B6D
:10213000D2B20283028B42EA012202837047028BF1
:1021400002F47F420283028B0A430283704721B16B
:10215000828A42F02002828204E0828A4FF6DF7394
:102160001A408282704721B1828A42F01002828234
:1021700004E0828A4FF6EF731A408282704721B1E1
:10218000828A42F00802828204E0828A4FF6F77364
:102190001A4082827047828A4FF6FB731A4082820D
:1021A000828A0A438282704721B1828A42F0020207
:1021B000828204E0828A4FF6FD731A408282704761
:1021C0000246002013880B4201D0012000E00020CD
:1021D0007047CA430280704770B502460B46002420
:1021E000002100250020C3F3421503F01F01012642
:1021F00006FA01F1012D02D19689314006E0022D47
:1022000002D1168A314001E0968A31401C12012623
:1022100006FA04F41688344011B10CB1012000E034
:10222000002070BD10B5002200230A120124944042
:10223000A3B2DC43048010BD004C004000BCFFBFD3
:102240000038014073B5054601A807F0C7FD0446F4
:10225000606900F26C7060612C222146284607F00C
:10226000C1FC7CBD0FB410B50798A0F26C7007904C
:1022700002A807F067FC10BC5DF814FB10B5FEF770
:1022800043FE10BD30B58BB00446FEF73DFE05465B
:1022900029466846FFF7D6FF2C226946204607F0FC
:1022A000A1FC0BB030BD10B50446FEF769FE204618
:1022B000FEF733FEFEF764FE10BD0FB410B588B014
:1022C0001C220EA9684607F08DFC0AA80FC8FFF76C
:1022D000C9FF0446FFF7E7FF08B010BC5DF814FB28
:1022E000704700BFFEE700BFFEE700BFFEE700BF8C
:1022F000FEE77047704770477047704770477047F8
:1023000010B50120FEF768FE28B10120FEF774FE2B
:1023100001201949087010BD704770477047704719
:1023200070477047704770477047704770477047F5
:1023300070477047704770477047704770477047E5
:1023400070477047704770477047704770477047D5
:1023500070477047704770477047704770477047C5
:1023600070477047704770477047704770477047B5
:1023700070477047704770470000002010B5044652
:1023800024B1012C04D0022C0CD109E0002010BD96
:1023900002F010FC02F03EFD534908600020F6E711
:1023A0000120F4E70120F2E7014621B1012904D020
:1023B000022906D103E0002070470020FCE700203E
:1023C000FAE700BF00BF0120F6E72DE9F047054618
:1023D0000E4617461C46B1464FF0000814B90420BB
:1023E000BDE8F08725B1012D07D0022D1BD119E0E2
:1023F00000BF002CFDD10020F2E7012C05D13146B1
:10240000384602F0BAFE804605E02246314638469C
:1024100002F03AFF8046B8F1000F01D10020DFE75B
:102420000120DDE700E000BF00BF0120D8E72DE973
:10243000F0470746884616461C46C14614B9042094
:10244000BDE8F08727B1012F0CD0022F1ED11CE070
:1024500004E0761C09F50079601EC4B2002CF8D1A6
:102460000020EDE7012C05D14146304602F0A0FEE8
:10247000054605E022464146304602F03BFF054650
:102480000DB90020DCE70120DAE700E000BF00BF63
:102490000120D5E710B504460CB1042010BD0F296A
:1024A0001DD2DFE801F0080A1C0F1415161C1C1CB5
:1024B0001718191A1B000020F0E74FF48050106025
:1024C0000020EBE74FF4007010600020E6E706E024
:1024D00005E004E003E002E001E000E000BF00BF2F
:1024E0000420DBE7002070474C00002070B5034655
:1024F0000C4603E014F8015B03F8015B1500A2F140
:102500000102F7D170BD30B5034601E003F8011BAD
:102510001400A2F10102F9D130BDF0B503461C460A
:102520000D46002000BF1600A2F1010207D014F8EA
:10253000017B15F801CBA7EB0C063000F3D0F0BD02
:10254000024600E0521C107810B110788842F9D190
:10255000107870472DE9F04104460D46266BAE42D7
:102560002FD0207908B360780123324604F134017A
:10257000FFF75DFF10B10120BDE8F0810020207160
:10258000E169606A0844B0420FD9E7780AE0E0697F
:10259000064460780123324604F13401FFF747FF17
:1025A000781EC7B2012FF2DC00BF55B1607801235D
:1025B0002A4604F13401FFF708FF08B10120DBE7E8
:1025C00025630020D8E770B5044600212046FFF7B8
:1025D000C1FF0546002D59D1207803284FD16079DD
:1025E00000284CD0002020634FF40072002104F139
:1025F0003400FFF788FF552184F83212AA2184F8AD
:102600003312522084F834005221352001556121C3
:1026100036200155412137200155722184F81812C6
:1026200084F81912412184F81A12612184F81B12CE
:10263000217C84F81C12208A010A84F81D1220696A
:10264000010C84F81E122069010E84F81F12217BF0
:1026500084F82012A089010A84F82112E068010C94
:1026600084F82212E068010E84F8231260780123B6
:1026700004F134016269FFF7DAFE002060716078CE
:1026800000221146FFF706FF00B10125284670BD64
:102690002DE9F04105460C46022C02D3286AA042DF
:1026A00002D80120BDE8F0816F6A2878012804D0A3
:1026B00002282AD0032870D140E0264606EB5606B1
:1026C00007EB56212846FFF745FF00B165E0C6F34A
:1026D000080105F1340010F80180761C07EB562143
:1026E0002846FFF737FF00B157E0C6F3080105F1B0
:1026F0003400405C48EA002814F0010F02D04FEA91
:102700001810CFE7C8F30B00CCE707EB14212846DD
:10271000FFF720FF00B140E040F2FF1000EA440163
:1027200005F13400415C40F2FF1000EA440205F17B
:1027300034001044407841EA0020B3E707EBD4119D
:102740002846FFF707FF00B127E040F2FF1000EA3C
:10275000840105F134000844C078010640F2FF10FE
:1027600000EA840205F134001044807841EA004117
:1027700040F2FF1000EA840205F134001044407872
:1027800041EA002040F2FF1101EA840205F1340120
:10279000895C084320F0704084E700BF4FF0FF30B1
:1027A00080E72DE9F04705460C461646022C02D379
:1027B000286AA04201D8022795E0D5F824A02878FD
:1027C000012804D0022843D003287DD159E0A04637
:1027D00008EB58080AEB58212846FFF7BBFE0746CE
:1027E00007B17DE0C8F3080105F1340001EB0009F1
:1027F00014F0010F05D0F1B299F8000061F31F1039
:1028000000E0304689F8000008F101080120287135
:102810000AEB58212846FFF79DFE074607B15FE007
:10282000C8F3080105F1340001EB000914F0010FB1
:1028300002D0C6F3071008E099F8000000F0F0009D
:10284000C6F3072101F00F01084389F8000047E0B3
:102850000AEB14212846FFF77DFE074607B13FE04B
:1028600040F2FF1000EA440205F134008654310AB8
:1028700040F2FF1000EA440205F1340010444170B8
:102880002EE00AEBD4112846FFF764FE074607B195
:1028900026E040F2FF1000EA840205F1340086547D
:1028A000310A40F2FF1000EA840205F134001044BE
:1028B0004170310C40F2FF1000EA840205F134004F
:1028C00010448170310E00E008E040F2FF1000EA91
:1028D000840205F134001044C17001E0022700BFFA
:1028E00000BF012028713846BDE8F0872DE9F0418E
:1028F00004460E46022E02D3206AB04201D80227B7
:1029000025E000271FE031462046FFF7C1FE0546BF
:1029100005B91BE0012D01D1022717E0681C01D188
:10292000012713E0002231462046FFF73AFF074611
:1029300007B10BE02069401C04D02069401C2061D5
:10294000012060712E46206AB042DCD800BF3846B4
:10295000BDE8F0812DE9F04705468846D5F820907E
:10296000B8F1000F05D1EE680EB14E4510D3012627
:102970000EE041462846FFF78BFE0746022F02D2A3
:102980000120BDE8F0874F4501D23846F9E74646B9
:10299000344600BF641C4C4504D30224B44201D920
:1029A0000020EEE721462846FFF772FE074607B9EA
:1029B00009E0781C01D0012F01D13846E1E7B4428B
:1029C000E8D10020DDE700BF6FF0704221462846C5
:1029D000FFF7E7FE10B14FF0FF30D2E7B8F1000F7C
:1029E00008D0224641462846FFF7DBFE10B14FF0E3
:1029F000FF30C6E7EC602869401C04D02869401EFF
:102A00002861012068712046BBE70246891E106AD2
:102A1000801E884201D8002070479378D06A01FB5D
:102A20000300F9E72DE9F04104460E46E680A5686B
:102A3000012D03D02068006AA84202D80220BDE818
:102A4000F0812DB920680078032801D12068856ABB
:102A500065B9E56020680089B04201DC0220EEE73C
:102A60002068806A00EB1610206120E020688078E2
:102A7000070112E029462068FFF70AFE0546681C98
:102A800001D10120DBE7022D03D32068006AA842B0
:102A900001D80220D3E7F01B86B2BE42EADAE56035
:102AA00029462068FFF7B1FF00EB1610206120686F
:102AB000343006F00F0100EB411060610020BEE7EA
:102AC0002DE9F04104468846E088401C86B20EB1EC
:102AD000206910B90420BDE8F08116F00F0F6ED107
:102AE0002069401C2061E06828B920680089B04254
:102AF00065DC0420EFE720688078401E10EA161F8E
:102B00005DD1E1682068FFF7C3FD0546012D01D8BE
:102B10000220E0E7681C01D10120DCE72068006AA0
:102B2000A84246D8B8F1000F01D10420D3E7E168EC
:102B30002068FFF70FFF05460DB90720CBE7012DF1
:102B400001D10220C7E7681C01D10120C3E70021A1
:102B50002068FFF7FFFC08B10120BCE7216801F104
:102B600034004FF400720021FFF7CDFC29462068A5
:102B7000FFF74BFF21680863002710E00120216860
:102B8000087100212068FFF7E5FC08B10120A2E7E9
:102B90002068006B401C21680863781CC7B220685D
:102BA0008078B842EADC2068006BC01B21680863AB
:102BB00000BFE56029462068FFF727FF2061E68017
:102BC0002068343006F00F0100EB411060610020F6
:102BD00081E72DE9F041044600212046FFF722FF5E
:102BE000054615B12846BDE8F08100BF216920687F
:102BF000FFF7B0FC054605B116E0666937780FB9F6
:102C0000042511E0F07A10F0080F06D10B223046AF
:102C1000A169FFF782FC00B906E000212046FFF71A
:102C20004FFF0546002DE1D000BF2846DBE72DE928
:102C3000F041044604251AE021692068FFF78AFC68
:102C4000054605B116E067693E780EB9042511E026
:102C5000E52E05D000BFF87A10F0080F00D109E08A
:102C600000212046FFF72CFF054605B102E0206950
:102C70000028E1D100BF0DB1002020612846BDE849
:102C8000F0812DE9F041044600212046FFF7CAFEFD
:102C90000546ADB900BF21692068FFF75BFC05461A
:102CA00005B10CE060690678E52E00D006B906E0B3
:102CB00001212046FFF704FF0546002DEBD000BFA1
:102CC000C5B921692068FFF745FC054695B96769D4
:102CD000202200213846FFF716FC0B223846A16956
:102CE000FFF704FCA069C07A00F0180038730120D7
:102CF000216808712846BDE8F08170B50446E18876
:102D00002046FFF78FFE05465DB921692068FFF771
:102D100021FC05462DB9E520616908700120216874
:102D20000871284670BD2DE9F34F81B08B4601989C
:102D300085690B2220212846FFF7E5FB0020064687
:102D40000746804608200090DBF800A01AF808002B
:102D50002E2825D100BF404608F101081AF800408E
:102D60002E2C02D1B8F1030F00DB03E038467F1CA4
:102D70002C54F0E700BF2F2C06D05C2C04D0202C64
:102D800002DD0620BDE8FE8F0AEB0800CBF800004C
:102D9000202C01DC242000E02020E8720020F1E754
:102DA00000BF404608F101081AF80040202C03DD5E
:102DB0002F2C01D05C2C00D157E02E2C02D0009893
:102DC00087420CDB0098082801D12E2C01D0062068
:102DD000D8E708270B200090B006060EE1E7802C0C
:102DE00001DB46F00306812C01DB9F2C03DDE02C88
:102DF00020DBFC2C1EDC404608F101081AF800908C
:102E0000B9F1400F02DBB9F17E0F05DDB9F1800F9A
:102E100006DBB9F1FC0F03DC0098401EB84201DC70
:102E20000620AFE738467F1C2C5438467F1C05F837
:102E3000009019E02146FEA0FFF782FB08B10620B2
:102E4000A0E7412C04DB5A2C02DC46F0020608E025
:102E5000612C06DB7A2C04DC46F00106A4F120008C
:102E6000C4B238467F1C2C549BE700BF0AEB080015
:102E7000CBF80000202C01DC042000E000200446F8
:102E80000FB906207EE72878E52801D105202870B3
:102E90000098082801D1B006060E06F003000128AC
:102EA00001D144F0100406F00C00042801D144F0D4
:102EB0000804EC72002065E7F0B505460B4603F107
:102EC00009022F69002F40D06869067B00210AE0C3
:102ED000445C202C00D108E0052C00D1E52400BF83
:102EE00002F8014B491C0829F2DB00BF077A202FAA
:102EF0000FD02E2702F8017B082107E0445C202C2C
:102F000000D105E000BF02F8014B491C0B29F5DB9D
:102F100000BFC77A1F72C77F4FEA076C877F4CEAF2
:102F2000074C477F4CEA072790F81CC047EA0C077C
:102F30001F6090F818C0477E4CEA07279F8090F8E2
:102F400016C0C77D4CEA0727DF8000271770F0BD49
:102F50002DE9F341044602E00198401C01900198DC
:102F600000782028F8D0019800782F2803D0019805
:102F700000785C2805D10198401C01900020A060D9
:102F800002E020688069A06001980078202807D2BC
:102F900000212046FFF746FD0646002060612BE039
:102FA00000BF01A92046FFF7BEFE064606B122E09B
:102FB0002046FFF70EFE0646A069C07A00F004071F
:102FC00026B1042E01D107B9052614E007B112E09D
:102FD0006569E87A10F0100F01D105260BE0A97E93
:102FE000E87E41EA00212A7D687D42EA002041EA2C
:102FF0000040A060D5E700BF3046BDE8FC8170B559
:1030000004460D46607801232A4604F13401FFF797
:10301000DCF908B1032070BD94F8321294F8330241
:1030200041EA0020A0F52A41553901D00220F2E7FB
:1030300094F86D00010694F86C0041EA004194F8A0
:103040006B0041EA002094F86A10084320F07F40AA
:103050007A49884201D10020DDE794F88900010611
:1030600094F8880041EA004194F8870041EA002082
:1030700094F88610084320F07F407049884201D1BF
:103080000020C8E70120C6E72DE9F74F82B002987B
:10309000D0F800B09BF80000A0F13009B9F1090F99
:1030A00009D89BF801003A2805D10BF1020B0298D0
:1030B000C0F800B002E0624890F80090B9F1030F48
:1030C00003D30B2005B0BDE8F08F5E4850F82940CF
:1030D000039804600CB90C20F4E7207878B160788C
:1030E000FFF762F9804618F0010F08D1049820B16B
:1030F00018F0040F01D00A20E4E70020E2E70020E6
:10310000207084F801906078FFF738F9804618F055
:10311000010F01D00320D5E7049820B118F0040F67
:1031200001D00A20CEE74FF0000A51462046FFF7B3
:1031300066FF0546012D13D104F5F977387978B18A
:10314000F87A0106B87A41EA0041787A41EA00202B
:10315000397A40EA010A51462046FFF750FF0546FA
:10316000032D01D10120ADE745B93F20015D94F861
:10317000400041EA0020B0F5007F01D00D20A1E71A
:103180004A20015D94F84B0041EA002676B994F894
:103190005B00010694F85A0041EA004194F8590096
:1031A00041EA002094F8581040EA0106E661442004
:1031B000005DE070E07846434220015D94F84300F2
:1031C00041EA0020504460624120005DA07045202B
:1031D000015D94F8460041EA002020814720015D0E
:1031E00094F8480041EA00200190019870B994F8E1
:1031F0005700010694F8560041EA004194F8550042
:1032000041EA002094F85410084301904220015DE7
:1032100094F8430041EA00210198401A801B21895B
:10322000A0EB1110A178B0FBF1F0801C00900BE036
:1032300020222A2B2C5B3D5D7C7F00004641540000
:1032400004000020880100202062012540F6F7716B
:103250000098884200D302254FF6F7710098884203
:1032600000D30325032D0FD194F86300010694F8D1
:10327000620041EA004194F8610041EA002094F8BC
:1032800060100843A06202E0606A3044A062606A95
:103290003044218900EB1110E0624FF0FF302061D3
:1032A00000202071032D5CD1607194F8641094F8B3
:1032B000650041EA0020504460616078012304F118
:1032C00034016269FFF781F8F0BB94F8321294F888
:1032D000330241EA0020A0F52A41553941D1372077
:1032E000005D01063620005D41EA00413520005DA9
:1032F00041EA002094F834100843F749884230D15D
:1033000094F81B02010694F81A0241EA004194F86D
:10331000190241EA002094F818120843EF49884244
:103320001FD194F82302010694F8220241EA0041D9
:1033300094F8210241EA002094F820120843E0604A
:1033400094F81F02010600E00BE094F81E0241EA27
:10335000004194F81D0241EA002094F81C12084331
:103360002061257000202063A061DD480088401C9A
:1033700080B2DB490880E0800020A3E670B50446F7
:103380000D4624B1207810B1E088A84201D0092070
:1033900070BD6078FFF708F810F0010F01D003202E
:1033A000F6E70020F4E70246032A01DB0B20704712
:1033B000CC4850F822300BB10020187009B1002021
:1033C0000870C84840F822100020F0E72DE9F743C4
:1033D0008AB0054616460020286006F01F0606F053
:1033E0001E0203A90BA8FFF74FFE07461FB1384680
:1033F0000DB0BDE8F083CDF824D003A80B99FFF7FA
:10340000A7FD074616F01C0F67D067B1042F03D144
:1034100003A8FFF736FC07460FB13846E8E746F049
:103420000806089C40E016F0040F01D00820DFE7F2
:10343000089C1CB1E07A10F0110F01D00720D7E7EB
:1034400016F0080F30D0A17EE07E41EA0021227DF7
:10345000607D42EA002041EA0049002020750021F9
:103460006175A076E17620776177A177E177012019
:10347000039908710398D0F83080B9F1000F0BD090
:1034800049460398FFF732FA07460FB13846AFE7CF
:10349000A9F101000399C86041460398FFF75AF863
:1034A00007460FB13846A3E716F0080F14D00020E6
:1034B000E072FFF717F8804684F80E804FEA182173
:1034C000E1734FEA184121744FEA186161740120D9
:1034D0000399087146F0200613E00FB1384687E7DC
:1034E000089C1CB1E07A10F0100F01D004207FE797
:1034F00016F0020F05D0E07A10F0010F01D007207E
:1035000076E70398006BE86108982862AE71A17EA7
:10351000E07E41EA0021227D607D42EA002041EA0E
:1035200000402861E07F0106A07F41EA0041607F02
:1035300041EA0020217F0843E8600020A860FF20C6
:10354000E8710020A861039828600398C088A880CB
:1035500000204DE72DE9FF4F83B0044615469946FC
:10356000DDF810A00020C9F80000A1882068FFF74E
:1035700005FF0290029818B1029807B0BDE8F08FDD
:10358000A07910F0800F01D00220F6E7A07910F0AA
:10359000010F01D10720F0E7D4E90210401A019091
:1035A0000198854200D9019DBFE02089C005C00D6A
:1035B0007BD1E0792168897888421EDBA06808B950
:1035C000206903E061692068FFF762F88346BBF178
:1035D000010F05D8A07940F08000A0710220CCE74F
:1035E0001BF1010005D1A07940F08000A0710120FD
:1035F000C3E7C4F814B00020E07161692068FFF7E8
:1036000004FA06462EB9A07940F08000A07102208D
:10361000B3E7E07906444FEA5528B8F1000F31D0FE
:10362000E079404421688978884204D9206880780C
:10363000E179A0EB010808F0FF03216848783246E1
:103640005146FEF7C2FE28B1A07940F08000A0717B
:10365000012092E7A07910F0400F0DD0A069801BE7
:10366000404509D2A169891B0AEB41204FF4007241
:1036700004F12401FEF73AFFE0794044E0714FEA9B
:10368000482748E0A07910F0400F13D0216848780F
:10369000012304F12401A269FEF7C9FE30B1A0792B
:1036A00040F08000A071012067E721E0A07920F0C0
:1036B0004000A071A069B04216D02168487801236B
:1036C000324604F12401FEF780FE68B1A07940F093
:1036D0008000A071012050E7525261417272416135
:1036E0000200002088010020A661E079401CE07102
:1036F0002089C0F30800C0F50077AF4200D92F46FB
:103700002089C0F3080204F1240011183A465046FB
:10371000FEF7ECFE00BFBA44A0683844A060D9F8B8
:1037200000003844C9F80000ED1B002D7FF43DAFC8
:10373000002022E72DE9FF4F81B0044615469A4646
:10374000DDF808B00020CAF80000A1882068FFF763
:1037500015FE0090009818B1009805B0BDE8F08FF4
:10376000A07910F0800F01D00220F6E7A07910F0C8
:10377000020F01D10720F0E7E0682844E1688842A1
:1037800000D20025CDE02089C005C00D75D1E079BB
:103790002168897888422CDBA06858B9D4F8109049
:1037A000B9F1000F0BD100212068FFF7D3F8814653
:1037B000206104E061692068FFF7CCF88146B9F127
:1037C000000F00D1B0E0B9F1010F05D1A07940F0B0
:1037D0008000A0710220C0E719F1010005D1A07995
:1037E00040F08000A0710120B7E7C4F814900020D9
:1037F000E071A07910F0400F12D0216848780123C1
:1038000004F12401A269FEF712FE28B1A07940F06C
:103810008000A0710120A0E7A07920F04000A071F5
:1038200061692068FFF7F1F806462EB9A07940F0EB
:103830008000A071022090E7E07906444FEA552805
:10384000B8F1000F32D0E07940442168897888428D
:1038500004D920688078E179A0EB010808F0FF0323
:103860002168487832465946FEF7E1FD30B1A0792B
:1038700040F08000A07101206FE731E0A069801B5B
:1038800040450DD2A069801B0BEB40214FF4007224
:1038900004F12400FEF72AFEA07920F04000A07178
:1038A000E0794044E0714FEA482730E0A069B04237
:1038B00012D0D4E9020188420ED22168487801234F
:1038C000324604F12401FEF780FD28B1A07940F0D2
:1038D0008000A071012040E7A661E079401CE07102
:1038E0002089C0F30800C0F50077AF4200D92F4609
:1038F0002189C1F3080204F1240150183A465946BF
:10390000FEF7F4FDA07940F04000A07100BFBB4479
:10391000A0683844A060DAF800003844CAF8000013
:10392000ED1B002D7FF42FAF00BFD4E902018842C8
:1039300001D9A068E060A07940F02000A0710020CB
:103940000BE72DE9F0410446A1882068FFF716FD3A
:103950000746002F4ED1A07910F0200F4AD0A07951
:1039600010F0400F0FD021684878012304F12401A2
:10397000A269FEF75CFD10B10120BDE8F081A079DD
:1039800020F04000A071E1692068FEF7E3FD0746E2
:10399000002F2FD1256AE87A40F02000E872207BC2
:1039A0002877A089010A6977E068010CA977E068A7
:1039B000010EE977207CA876208A010AE976206941
:1039C000000C28752069010E6975FEF78BFD06460F
:1039D000AE75310AE975310C2976310E6976A07918
:1039E00020F02000A0710120216808712068FEF7F6
:1039F000EAFD07463846C0E770B504462046FFF7A3
:103A0000A0FF05460DB900202060284670BD014684
:103A1000032901DB0B207047FC4801700020FAE706
:103A200031B58AB0002203A90AA8FFF72DFB05468D
:103A300015BBCDF824D003A80A99FFF789FA0546EB
:103A4000BDB9089C1CB900200399886111E0E07A97
:103A500010F0100F0CD0A17EE07E41EA0021227D03
:103A6000607D42EA002041EA00400399886100E05D
:103A70000525042D00D1052528460BB030BD2DE9C4
:103A8000F04704460E46A1882068FFF777FC82467F
:103A9000BAF1000F02D05046BDE8F087A07910F0CF
:103AA000800F01D00220F7E7E068B04204D2A0798D
:103AB00010F0020F00D1E668D4F808904FF000082B
:103AC000C4F80880FF20E071002E7DD02068807847
:103AD0004702B9F1000F11D0701EB0FBF7F1A9F148
:103AE0000100B0FBF7F0814208D3A9F10100791E73
:103AF0008843A060A068361A656918E02569ADB9E9
:103B000000212068FEF726FF0546012D05D1A0798A
:103B100040F08000A0710220BEE7681C05D1A079AA
:103B200040F08000A0710120B6E725616561002D9D
:103B30004AD029E0A07910F0020F07D0294620686A
:103B4000FEF708FF054635B93E461FE029462068C6
:103B5000FEF79EFD0546681C05D1A07940F0800067
:103B6000A071012098E7012D03D92068006AA842BE
:103B700005D8A07940F08000A07102208CE7656133
:103B8000A0683844A060F61BBE42D3D800BFA0682E
:103B90003044A060C6F34720E071F005C00D13D09B
:103BA00029462068FEF731FF8046B8F1000F06D1A4
:103BB000A07940F08000A07102206DE704E0E07978
:103BC0008044E079401CE0712089C005C00D2AD0F6
:103BD000A069404527D0A07910F0400F12D021688D
:103BE0004878012304F12401A269FEF720FC28B1E2
:103BF000A07940F08000A07101204DE7A07920F06D
:103C00004000A071216848780123424604F1240154
:103C1000FEF7DBFB28B1A07940F08000A071012005
:103C20003AE7C4F81880D4E90201884205D9A068AF
:103C3000E060A07940F02000A07150462CE773B5F9
:103C400084B004460022214605A8FFF71DFA064667
:103C500036BB01A8A06120460599FFF779F9064611
:103C6000DEB9656985B1E87A10F0100F0BD0A97E36
:103C7000E87E41EA00212A7D687D42EA002041EA8F
:103C80000040A06000E005263EB92068C088A08002
:103C900000212046FEF7C6FE0646042E00D105266A
:103CA000304606B070BDFEB504460E46A1882068B9
:103CB000FFF764FB054605BBC4F818D02EB90021F8
:103CC0002046FEF7AFFE054617E02046FEF7AFFFA1
:103CD0000546042D02D10020206100256DB9314632
:103CE0002046FFF7E9F800212046FEF7E9FE0546E9
:103CF000042D02D10020206100252846FEBD33B5E9
:103D00008BB00D46002204A90BA8FFF7BDF90446AD
:103D10007CB901A80A9004A80B99FFF719F9044689
:103D20003CB9099820B1294604A8FFF7C5F800E07E
:103D3000062420460DB030BD2DE9F74F82B08B46EA
:103D400014460022214602A8FFF79EF9019001982F
:103D500018B1019805B0BDE8F08F20680169006ACC
:103D6000801E814205D820680069CBF80000002041
:103D7000F0E7206890F800A00026BAF1010F1BD1EF
:103D8000022700BF39462068FEF782FC804618F102
:103D9000010001D10120DDE7B8F1010F01D10220BE
:103DA000D8E7B8F1000F00D1761C781C07462168CF
:103DB000096A8842E6D33FE02068076A2068406AC3
:103DC00000904FF00009002500BFB9F1000F10D19D
:103DD000009A531C114600932068FEF7BBFB01902C
:103DE000019808B10198B5E7206800F134054FF457
:103DF0000079BAF1020F0BD12878697850EA0120D6
:103E000000D1761CAD1CA9F1020912E004000020CB
:103E1000E8780006A97840EA0140697840EA012084
:103E20002978084330F0704000D1761C2D1DA9F18F
:103E30000409781E0700C8D120680661BAF1030F93
:103E400002D1012021684871CBF80060002081E791
:103E500070B50446A1882068FFF790FA06460EB1B7
:103E6000304670BDA07910F0800F01D00220F8E735
:103E7000A07910F0020F01D10720F2E7D4E9021077
:103E800088422DD9A068E060A07940F02000A071A0
:103E9000A06838B921692068FEF728FD0646002091
:103EA00020611DE061692068FEF7F2FB05460026EF
:103EB000681C00D10126012D00D1022686B9206898
:103EC000006AA8420CD96FF0704261692068FEF761
:103ED00068FC064626B929462068FEF707FD064617
:103EE0001EB1A07940F08000A0713046B9E771B5ED
:103EF00091B001220AA911A8FFF7C6F8044614B12F
:103F0000204612B070BDCDF840D00AA81199FFF735
:103F10001FF804462CB91098C07A10F0200F00D07A
:103F200006240CB12046ECE70F9D0DB90620E8E70A
:103F3000E87A10F0010F01D00720E2E7A97EE87EC1
:103F400041EA00212A7D687D42EA002041EA0046DC
:103F5000E87A10F0100F1BD0022E01D20220D0E719
:103F60001C220AA903A8FEF7C1FA0596022103A89C
:103F7000FEF758FD04460CB12046C2E703A8FEF741
:103F800056FE044604B90724042C01D02046B8E7A5
:103F90000AA8FEF7B2FE044654B926B131460A9883
:103FA000FEF7A4FC04461CB90A98FEF70CFB044675
:103FB0002046A6E72DE9F1478BB0012204A90BA802
:103FC000FFF762F806461EB130460CB0BDE8F08738
:103FD00001A80A9004A80B99FEF7BAFF064606B995
:103FE0000826042E05D10A98C07A10F0200F00D0C0
:103FF0000626042E01D03046E7E700210498FEF79C
:10400000A9FC0546002605B90726012D00D1022688
:10401000681C00D1012626B900210498FEF79AFAFF
:1040200006460EB13046D0E729460498FEF7EDFC6F
:104030008246049800F134044FF4007200212046B7
:10404000FEF761FA0B2220212046FEF75CFA2E20B3
:1040500020701020E072FEF745FA0746A775390A6E
:10406000E175390C2176390E6176A576290AE1765B
:10407000280C2075290E61752022214604F12000AC
:10408000FEF734FA2E2084F82100DDF81880049819
:104090000078032805D10498806A404501D14FF08B
:1040A000000884F83A804FEA182184F83B10C8F3DE
:1040B0000741342001554FEA186184F835104FF05C
:1040C000000919E00498C0F830A00AF1010A0120A3
:1040D0000499087100210498FEF73CFA06460EB1D7
:1040E000304672E74FF4007200212046FEF70BFACB
:1040F00009F1010000F0FF09049880784845E1DCEF
:1041000004A8FEF7BEFD064626B129460498FEF730
:10411000EDFB17E0099C1020E072A775390AE175E4
:10412000390C2176390E6176A576290AE176280CBC
:104130002075290E61750120049908710498FEF715
:1041400042FA0646304640E7F7B58AB00F461446B5
:10415000012203A90AA8FEF797FF05460DBBCDF87B
:1041600024D003A80A99FEF7F3FE05462DB9099855
:10417000C07A10F0200F00D0062595B9089E0EB920
:1041800006250EE004F0270407EA0400F17AA143B3
:104190000843F0720120039908710398FEF713FA9F
:1041A000054628460DB0F0BD73B58AB00D46012214
:1041B00003A90AA8FEF768FF06461EBBCDF824D067
:1041C00003A80A99FEF7C4FE06462EB90998C07ADC
:1041D00010F0200F00D00626A6B9089C0CB90626C0
:1041E00010E0A879A075E8880112E1752879207699
:1041F000A888011261760120039908710398FEF7DF
:10420000E2F9064630460CB070BDF3B597B00F46E4
:1042100006A81690012210A917A8FEF735FF05463B
:104220006DB91098099010A81799FEF791FE0546F0
:104230002DB91698C07A10F0200F00D0062515B1C0
:10424000284619B0F0BD159808B90420F9E715986B
:1042500000F10B0115226846FEF748F91C2210A94F
:1042600009A8FEF743F9394609A8FEF771FE05468D
:1042700005B90825042D58D109A8FEF702FD054609
:10428000002D52D10E9C13220DF1020104F10D00FC
:10429000FEF72CF99DF8000040F02000E0720120AC
:1042A00010990871E07A10F0100F34D0237D627DF0
:1042B00043EA022294F81AC0E37E4CEA032342EA5E
:1042C00003010998FEF7A1FB06460EB9022522E07C
:1042D00031460998FEF73EF90546099800F1540465
:1042E000CDB960782E2816D109980078032806D118
:1042F00009990B98896A884201D1002000E00B9847
:104300000646A676310AE176300C2075310E6175CD
:1043100001200999087145B910A8FEF7EEFC054681
:104320001DB91098FEF74FF90546284689E72DE993
:10433000F74F8CB08A4691460C98032803DB0B207C
:104340000FB0BDE8F08FBAF1020F01DB0E20F7E7E6
:10435000FE490C9851F820000290029808B90C20F0
:10436000EEE70021029801700C980C900C98FEF773
:1043700005F80190019810F0010F01D00320DFE74C
:10438000019810F0040F01D00A20D9E707AA0121F3
:104390000C98FEF77FF818B90798B0F5FA6F01D2BC
:1043A0000E20CDE70798B0F1FA6F02D94FF0FA600E
:1043B0000790BAF1000F01D13F2000E0002007462E
:1043C0000798C01B07904FF40070059002E0059815
:1043D000400005900598B0F5004F02D80598484573
:1043E000F5D10598484501D04FF00009B9F1000F0B
:1043F00020D1079805904FF40070039005E00598D0
:10440000400805900398401003900398B0F5007F92
:10441000F5D80020049002E00498401C0490CC4899
:10442000049950F8211005988142F5D8C94804999B
:1044300030F81190B9F5007F01D24FF400794FEABE
:1044400059290798B0FBF9F64FF0010840F6F570CE
:10445000864201D34FF002084FF6F570864201D331
:104460004FF00308B8F1010F03D0B8F1020F19D1D2
:104470000DE006EB4600401C032101EB500000F26A
:10448000FF10450A0AF1010B2020069015E00420D8
:1044900000EB460000F2FF10450A0AF1010B202054
:1044A00006900AE0082000EB860000F2FF10450AA3
:1044B000CAF1210B0020069000BF00BF07EB0B00E4
:1044C0000A900A9828440990069909980844089087
:1044D00004AA03210C98FDF7DDFF08B10E202FE799
:1044E000049908980844401E491E88430490049982
:1044F0000898081A05440798A0EB0B00411B069882
:10450000081AB0FBF9F6B8F1020F03D140F6F570C6
:10451000864206D3B8F1030F05D14FF6F5708642F7
:1045200001D20E200CE7BAF1000F5FD10798384492
:1045300000904FF40072002102983430FDF7E3FF41
:10454000029800F5F9748020207001206070A0703E
:104550000020E0708049009888420FD23F210098E7
:10456000B0FBF1F0FF21B0FBF1F000900098E0719A
:104570003F21009841EA9000A07103E0FF20A07164
:10458000FF21E171FE206071B8F1030F08D0079898
:10459000B0F5803F01D2042000E00620207101E048
:1045A0000C2020713F20207200216172A172E17203
:1045B000079820730798010A61730798010CA1738B
:1045C0000798010EE173552084F84000AA2141208C
:1045D000015501230022029934310C98FDF727FF81
:1045E00008B10120ACE64FF0F80A01E04FF0F00A04
:1045F000029800F134044FF4007200212046FDF7C8
:1046000082FFEB202070FE2060709020A0700020C0
:10461000E070E0720221217384F80D9084F80EB0EE
:104620004FEA1B21E1730120207406980007000E59
:1046300060740698C0F31711A1740798B0F5803F15
:1046400005D20798E0740798010A217510E00798D1
:1046500084F820000798C0F307212120015507980E
:10466000C0F30741222001550798010E2320015570
:1046700084F815A03F20207600216176FF20A076E7
:10468000E1762777390A6177390CA177390EE1771E
:10469000FDF728FF0490B8F1030F20D0049884F8A8
:1046A00027000498C0F30721282001550498C0F37F
:1046B0000741292001550498010E2A200155A575AE
:1046C000290AE175802084F82400292084F8260036
:1046D000132222A104F12B00FDF708FF50E00498FB
:1046E00084F843000498C0F307214420015504983E
:1046F000C0F30741452001550498010E462001559D
:1047000084F82450C5F3072125200155C5F307413E
:1047100026200155290E27200155022084F82C005F
:1047200000212D2001552E2001552F20015501205B
:1047300084F8300031200155062084F832003320FF
:104740000155802084F84000292011E088010020D4
:10475000D4AC000800AD00080004FB004E4F204E12
:10476000414D45202020204641542020202020007B
:1047700084F842001322FEA104F14700FDF7B6FEC3
:10478000552084F8FE01AA2140F2FF1001550123B3
:104790003A4621460C98FDF74AFE08B10120CFE5C4
:1047A000B8F1030F05D10123BA1D21460C98FDF77E
:1047B0003EFE00200B905BE04FF40072002120468B
:1047C000FDF7A1FEB8F1030F17D0B8F1010F01D129
:1047D000EC4801E06FF0FF000490049840EA0A0002
:1047E0000490049820700498000A60700498000CEB
:1047F000A0700498000EE0700FE0F8202070FF20F9
:104800006070A070E0702071FF216171A171E17191
:1048100020726172A1720F21E1720A98411C024656
:1048200001230A9121460C98FDF701FE08B10120F1
:1048300086E54FF4007200212046FDF764FE01205A
:1048400004900EE00A98411C024601230A91214679
:104850000C98FDF7ECFD08B1012071E50498401CAF
:1048600004900498A842EDD30B98401CC0B20B9062
:104870000B980128A0DBB8F1030F01D1484600E0F6
:1048800006980B9000BF0A98411C024601230A912A
:1048900021460C98FDF7CBFD08B1012050E50B989F
:1048A000401E10F0FF000B90EDD1B8F1030F44D182
:1048B000552084F8FE01AA2140F2FF100155522034
:1048C000207060706120A0704120E070722084F838
:1048D000E401722140F2E51001554121401C0155CF
:1048E0006121401C0155701E84F8E801C0F30721C6
:1048F00040F2E9100155701EC0F307414FF4F57006
:104900000155701E010E40F2EB100155FF2084F896
:10491000EC01FF2140F2ED100155401C0155401CF7
:10492000015501237A1C21460C98FDF780FD0123D7
:10493000FA1D21460C98FDF77AFD002211460C98CD
:10494000FDF7A8FD08B10120FAE40020F8E42DE904
:10495000F84306460F469046002534460FE06B4666
:10496000012221464046FEF7F5FD0098012800D0BF
:1049700008E06D1C14F8011B0A2900D102E0781E22
:10498000A842ECDC00BF0020207015B13046BDE825
:10499000F8830020FBE77CB505460C460CB9284699
:1049A0007CBDE8B2009001AB012269462046FEF7CB
:1049B000C1FE019808B12846F2E74FF0FF30EFE75B
:1049C00070B504460E46002509E020783146FFF711
:1049D000E2FF401C01D1401E70BD641C6D1C20789C
:1049E0000028F2D12846F7E70FB42DE9F04F87B041
:1049F000834612A80690002080460190C7E01198D7
:104A000010F8014B119004B9C5E0252C0AD0594685
:104A10002046FFF7C0FF804618F1010001D04FF09B
:104A20000108A4E0002006468246119810F8014BC8
:104A30001190302C04D10126119810F8014B1190DF
:104A400009E0A4F130000AEB8A0100EB410A119859
:104A500010F8014B1190302C01DB392CF1DD6C2C5E
:104A600005D146F00206119810F8014B1190732CF5
:104A700007D1069901C906915946FFF7A1FF804663
:104A800075E0632C0CD1069901C906915946FFF7D0
:104A900082FF804618F1010001D04FF0010866E066
:104AA0004FF00009642C01D14FF00A09752C01D197
:104AB0004FF00A09582C01D14FF01009B9F1000F3D
:104AC00000D168E016F0020F03D0069880C8069067
:104AD0000DE0642C05D1069800680699091D069121
:104AE00004E0069800680699091D06910746642CA3
:104AF00005D117F0004F02D07F4246F004060F2583
:104B0000002002A9485500BFB7FBF9F009FB10705F
:104B10003030C4B2392C01DDE01DC4B2681E054638
:104B200002A90C54B7FBF9F70DB1002FECD13DB140
:104B300016F0040F04D02D21681E054602AA115458
:104B4000CAF10F0A09E016F0010F01D0302100E090
:104B50002021681E054602AA11540DB15545F2DC0C
:104B600002A948195946FFF72BFF804600BF0BE00A
:104B70004E4F204E414D4520202020464154333297
:104B80002020200000FFFF0001984044019018F110
:104B900001007FF434AF00BF0020069018F101003F
:104BA00005D1404607B0BDE8F00F5DF814FB019851
:104BB000F8E7000000B587B001210803FCF71CF9F5
:104BC00001210420FCF718F9E020ADF804000320CF
:104BD0008DF8060018208DF8070001A9FE48FBF7A4
:104BE00021FC1020ADF8040003208DF806001020F1
:104BF0008DF8070001A9F848FBF714FCF6480C30C3
:104C0000006840F01000F4490C3108600020ADF855
:104C100008004FF48270ADF80A000020ADF80C00D7
:104C20000220ADF80E000120ADF810004002ADF8F2
:104C300012000820ADF814000020ADF8160007207F
:104C4000ADF8180002A9E548FCF70CFA0121E34889
:104C5000FCF7A5FA07B000BD10B586B004460020E9
:104C6000ADF804004FF48270ADF806000020ADF8F6
:104C700008000220ADF80A000120ADF80C00400247
:104C8000ADF80E001CB93820ADF8100002E0082085
:104C9000ADF810000020ADF812000720ADF81400A8
:104CA00001A9CE48FCF7DEF906B010BD10B50446E8
:104CB000C9480C30006820F01000C7490C3108606A
:104CC00000BF0221C548FCF7EEFA0028F9D02146C2
:104CD000C248FCF795FA0A2000F0C2FF00BF01218C
:104CE000BE48FCF7E0FA0028F9D0BB480C30006859
:104CF00040F01000B8490C310860B848FCF782FA5F
:104D0000C0B210BD70B5002500BFFF20FFF7CEFF79
:104D10000446A5F57F40FE3801D1012070BDFF2C6F
:104D2000F3D10020FAE72DE9F04105460C4616467E
:104D30000027FF20FFF7BAFFA7480C30006820F0DB
:104D40001000A5490C31086045F04000FFF7AEFFA8
:104D5000200EFFF7ABFFC4F30740FFF7A7FFC4F334
:104D60000720FFF7A3FFE0B2FFF7A0FF3046FFF7F1
:104D70009DFF04E0781CC7B2C82F00DD05E0FF20CE
:104D8000FFF794FF8046FF28F4D000BF92480C3014
:104D9000006840F0100090490C310860FF20FFF7D8
:104DA00085FF4046BDE8F0812DE9F04105460C46FF
:104DB00016460027FF20FFF779FF87480C30006870
:104DC00020F0100084490C31086045F04000FFF7E6
:104DD0006DFF200EFFF76AFFC4F30740FFF766FF81
:104DE000C4F30720FFF762FFE0B2FFF75FFF304632
:104DF000FFF75CFF04E0781CC7B2C82F00DD05E0B8
:104E0000FF20FFF753FF8046FF28F4D000BF404645
:104E1000BDE8F0817CB50020FFF71EFF002604E00E
:104E2000FF20FFF743FF701C86B20A2EF8DB002537
:104E300000BF952200210846FFF775FF0446681C55
:104E400085B2012C01D0C82DF3DBC82D01D1012082
:104E50007CBD87224FF4D5710820FFF7A5FF0446DB
:104E6000052C4FD101205E4908705B480C3000686A
:104E700040F0100058490C310860FF20FFF716FF82
:104E8000002500BF002211463720FFF74CFF0446E3
:104E9000012C01D02046DBE7002211462920FFF734
:104EA00042FF0446681C85B214B1B5F5C87FE9DB42
:104EB000B5F5C87F15D1002500BF0022114601209D
:104EC000FFF731FF0446681C85B214B1B5F5C87F01
:104ED000F3DBB5F5C87F01D10120B9E700204049D7
:104EE00008700120FFF7B8FEFF20FFF7DFFEFF226A
:104EF0004FF400711020FFF716FF0446002C6AD013
:104F00002046A5E7012C7ED1FF20FFF7CFFE8DF8CC
:104F10000000FF20FFF7CAFE8DF80100FF20FFF719
:104F2000C5FE8DF80200FF20FFF7C0FE8DF80300DC
:104F300029480C30006840F0100027490C31086007
:104F4000FF20FFF7B3FE9DF8020001285BD19DF81A
:104F50000300AA2857D1002500BF002211463720A0
:104F6000FFF7E1FE0446012C01D0204670E7002245
:104F70004FF080412920FFF7D6FE0446C82D01DD01
:104F8000204665E7002CE8D1002211463A20FFF7C1
:104F90000BFF04460CB120465AE7FF20FFF786FEC0
:104FA0008DF80000FF20FFF781FE8DF80100FF2043
:104FB000FFF77CFE8DF80200FF20FFF777FE8DF8EB
:104FC000030005480C30006840F0100002490C3125
:104FD0000860FF2006E016E00008014000300140B4
:104FE00005000020FFF762FE9DF8000010F0400F62
:104FF00003D00420F749087002E00220F549087048
:105000000120FFF729FE204622E72DE9F041044662
:1050100088461646F048006820F01000EE49086007
:10502000002700BFFF20FFF741FE0546781C87B22E
:10503000B7F5FA6F08DDE848006840F01000E6496F
:1050400008600120BDE8F081FE2DEBD104E0FF20D7
:10505000FFF72CFE2070641C5FEA0800A8F1010134
:105060001FFA81F8F3D1FF20FFF720FEFF20FFF7A2
:105070001DFE012E08D1D848006840F01000D64926
:105080000860FF20FFF712FE0020DBE770B5054641
:10509000FF2200210A20FFF746FE04460CB12046FD
:1050A00070BD012210212846FFF7AFFF0020F7E76F
:1050B00070B50546FF2200210920FFF734FE0446A3
:1050C0000CB1204670BD012210212846FFF79DFF3C
:1050D0000020F7E72DE9FF416846FFF7E9FF18B127
:1050E000002004B0BDE8F0819DF8000000F0C00091
:1050F000402807D19DF808109DF80900093081402B
:105100008F0238E09DF8060000F003044FF6FF70B0
:1051100000EA04249DF8070004444FF6FF7000EAFB
:1051200084049DF8080004EB90149DF8090000F039
:10513000030676009DF80A0006EBD016B61C012582
:1051400005E04FF6FF7000EA4505701EC6B2002E5E
:10515000F7D1601C00FB05F79DF8050000F00F0477
:10516000012505E04FF6FF7000EA4505601E84B298
:10517000002CF7D16F433846B3E770B504460E46AE
:105180000120FFF769FD6402002221461120FFF78C
:10519000CAFD05460DB1284670BD012251023046B8
:1051A000FFF733FF05460DB12846F5E70020F3E78A
:1051B0002DE9F04105460E460120FFF74DFD8548DB
:1051C0000078042800D06D02002229461820FFF73D
:1051D000AAFD044614B12046BDE8F0817E4800686F
:1051E00020F010007C490860FF20FFF75FFDFF20E2
:1051F000FFF75CFDFF20FFF759FDFE20FFF756FD8E
:10520000002705E016F8010BFFF750FD781C87B268
:10521000B7F5007FF6DBFF20FFF748FDFF20FFF723
:1052200045FDFF20FFF742FD044604F01F0005285E
:1052300007D06948006840F01000674908602046C0
:10524000CAE74FF000080FE008F101001FFA80F8EC
:105250004FF6FE70804507DD5F48006840F01000A3
:105260005D4908600120B7E7FF20FFF71FFD002818
:10527000EAD05948006840F0100057490860FF2004
:10528000FFF714FD0020A7E72DE9F04105460E4683
:1052900014460120FFF7E0FC6D020022294612208F
:1052A000FFF741FD074617B13846BDE8F08100BF62
:1052B00000224FF400713046FFF7A7FE00B105E071
:1052C00006F50076601EC0B20400F1D100BF0022D6
:1052D00011460C20FFF727FD3F48006840F0100002
:1052E0003D490860FF20FFF7E1FC0CB12046DCE7F8
:1052F0000020DAE72DE9F04106460F461546012069
:10530000FFF7AAFC33480078042800D07602314821
:10531000007828B1002229461720FFF704FD044633
:10532000002231461920FFF7FEFC044614B1204646
:10533000BDE8F0812848006820F010002649086088
:10534000FF20FFF7B3FCFF20FFF7B0FC00BFFC20FD
:10535000FFF7ACFC4FF0000807E017F8010BFFF770
:10536000A5FC08F101001FFA80F8B8F5007FF4DB16
:10537000FF20FFF79BFCFF20FFF798FCFF20FFF7C3
:1053800095FC044604F01F00052807D01248006869
:1053900040F01000104908602046C9E7FFF7B2FC52
:1053A000012807D10C48006840F010000A49086045
:1053B0000120BDE7681EC0B20500C8D1FD20FFF77F
:1053C00075FC044604B9FE25FFF79CFC30B100BF14
:1053D000FEE70000050000200C08014005480068B9
:1053E00040F0100003490860FF20FFF75FFC2846EB
:1053F0009EE700000C08014088B01822F7A102A81F
:1054000004F0F0FBFBA103C9CDE9000100F056FE5A
:1054100000F09CFE02F0CFFC482000F0EBFBFFF711
:10542000C9FB01F09FF8F5A004F0BCFF0A22114669
:105430000B2000F0C5FFF5490120FDF7B4FF322035
:1054400000F0F3FB01F06DFF322000F0EEFB03F003
:10545000A4FF02F03AFA322000F0E7FB01F07CFAF8
:1054600001F020FD00F0F4FD01F0C8FE022802D199
:105470000120E74908600120E6490860E6A004F041
:1054800091FF4FF4617000F0D0FB02F0DDFCE4A06E
:1054900004F088FF08E0E7480068082801DB03F013
:1054A000ABF9322000F0C1FBF5E710B50121880708
:1054B000FCF7FBFC00287DD001218807FCF706FDE6
:1054C000DD480068401CDC490860DC480068401C7E
:1054D000DA490860DA480068401CD9490860084683
:1054E000006832280BD1D748006808B9012000E0D5
:1054F0000020D44908604FF00000D1490860D2482C
:10550000006800F10100D0490860084600684CF2CC
:105510005031884202DD0020CB490860CB4800684A
:10552000401CCA490860CA480068401CC849086055
:10553000B7480068002804DDB5480068401CB4493D
:105540000860C448006801280ED10220B1490860F3
:10555000C1A004F027FF142000F067FBC2A004F0F4
:1055600021FF0020BB490860C0480068012808D01E
:10557000B7480068401C04D0B5480068BC49884260
:1055800021DD0120BB49086001F093FE322000F0CC
:105590004CFB01F08EFE322000F047FB01F097FE3D
:1055A000322000F042FB01F092FE0020AF4908607B
:1055B000012000E074E0A6490860322000F035FBCD
:1055C0000020AC49086092480068B0F5966F28DB6F
:1055D000022090490860A8A004F0E4FEA2A004F014
:1055E000E1FE142000F021FB01F063FE322000F008
:1055F0001CFB01F05EFE01F06AFE322000F015FB9C
:1056000001F065FE0020994908600120904908607A
:1056100000207F49086003207E49086097A004F0BD
:10562000C1FE9D480068012804D19C480068401CC8
:105630009A49086099480068322812DD002097498D
:10564000086097480068012804D19649086092498B
:10565000086006E00020934908608F49086090497F
:10566000086076480068B0F5167F19DD714800685B
:10567000012802D18C4908600FE06E4800688A4911
:105680000968884204DD6B4800688749086004E0C7
:105690000020684908608449086000206749086064
:1056A00010BD70B5002440F225518048FCF794FDF0
:1056B000002819D07D48FCF730FDC5B27C48006851
:1056C0000C2801DD002001E0794800687849086075
:1056D000042D0AD100200860002603E0002075494F
:1056E0008855761C0C2EF9DBE2E10D2D74D1714941
:1056F00071A004F057FE72A16E4804F091FA0446BE
:1057000064B10120434908606FA004F04BFE032000
:10571000404908606EA004F045FE70BD71A1654867
:1057200004F07EFA044664B101203A4908606FA093
:1057300004F038FE0320374908606EA004F032FE02
:10574000EBE771A15B4804F06BFA044664B10120F9
:10575000304908606EA004F025FE03202D49086042
:105760006DA004F01FFED8E770A1524804F058FA6B
:10577000044664B10120274908606DA004F012FEC0
:105780000320244908606CA004F00CFEC5E76FA15B
:10579000484804F045FA04466CB101201D490860F0
:1057A0006BA004F0FFFD03201A49086001216AA0E4
:1057B00004F0F8FDB1E76FA13E4804F031FA044669
:1057C0005CB10120134908606BA004F0EBFD0320DD
:1057D000104908600221D3E062E1D5E048656C6CB5
:1057E0006F206D6864693132203132333435363799
:1057F000383900006D656864690000000D5653314A
:1058000030303320496E69742E2E2E00D4030020D0
:105810008C00002024000020313233343536000063
:105820000D53797374656D2053746172742E2E2E2E
:10583000000000006C000020540000203800002010
:1058400030000020BC81214224010020880000207B
:10585000200000209400002041542B434D474C3D34
:1058600022414C4C220000000D0000009800002056
:1058700000EB410090000020415400000D53494DC1
:105880003930305F5475726E4F6E5F436F6E66696C
:10589000672E2E2E00000000E400002034000020BF
:1058A0002C010020BC0122423C00002000480040A6
:1058B00040000020940100200D22257322000000EA
:1058C000424C554500000000424231424C0000006D
:1058D0000D52454D4F544520434F44453A204242D6
:1058E00031424C0059454C4C4F570000424231590F
:1058F0004C0000000D52454D4F544520434F444548
:105900003A20424231594C00475245454E00000072
:10591000424231474E0000000D52454D4F54452044
:10592000434F44453A20424231474E0052454400DD
:1059300042423152440000000D52454D4F54452023
:10594000434F44453A204242315244003100000066
:1059500042423130310000000D52454D4F54452038
:10596000434F44453A2042423130313A20253032CB
:10597000640000003200000042423130320000007A
:105980004CA004F00FFDC8E651A1524804F048F9BC
:1059900004466CB101205049086050A004F002FD9B
:1059A00003204D49086003214EA004F0FBFCB4E63F
:1059B00053A1484804F034F904466CB1012046492B
:1059C000086050A004F0EEFC032043490860042165
:1059D0004EA004F0E7FCA0E653A13E4804F020F9F5
:1059E00004466CB101203C49086050A004F0DAFC88
:1059F00003203949086005214EA004F0D3FC8CE651
:105A000053A1344804F00CF904466CB1012032492A
:105A1000086050A004F0C6FC03202F49086006214E
:105A20004EA004F0BFFC78E653A12A4804F0F8F831
:105A300004466CB101202849086050A004F0B2FC73
:105A400003202549086007214EA004F0ABFC64E662
:105A500053A1204804F0E4F804466CB101201E492B
:105A6000086050A004F09EFC03201B490860082138
:105A70004EA004F097FC50E653A1164804F0D0F86D
:105A80000446ACB101201449086050A004F08AFC1F
:105A900003201149086009214EA004F083FC3CE674
:105AA000534801680068401C514A10600948455439
:105AB00000BF32E60D52454D4F544520434F4445FB
:105AC0003A2042423130323A202530326400000020
:105AD00033000000940100202400002042423130B5
