:0A00000030C08DC0B7C0FCCFFBCFAD
:10000A00FACFF9CFF8CFF7CFF6CFF5CFF4CFF3CFBA
:10001A00F2CFF1CFF0CFEFCFEECFEDCF1027E8033D
:10002A0064000A0001000010000110000100010034
:10003A0001000100000000000000000000000100B3
:10004A0002003800010070013A000100B6013C00CC
:10005A000A0004003E000000F894EE27ECBBF1E031
:10006A00FBBFEBBFE5BFF8E1F1BDE1BD8DE0A2E06A
:10007A00BB27ED938A95E9F780E094E0A0E6ED933B
:10008A000197E9F7E8E4F0E085919591009761F02E
:10009A00A591B59105901590BF01F00105900D92BB
:1000AA000197E1F7FB01F0CFEFE5EDBFE4E0EEBF2A
:1000BA00C0E6D1E0ABC2E0E0E8BBE7E0E7BBE0E0E6
:1000CA00E5BBE0E3E4BBE3E0E2BBE0EFE1BBE0E099
:1000DA00EFBDE2E0EEBDE0E0EDBDECBDE7BDE6BDA3
:1000EA00EBBDEABDE9BDE8BDEBB7E06CEBBFEFE005
:1000FA00E5BFE0ECEABF7894DBD2E0D218974CF483
:10010A00E2D2E6D2EDD2F1D232D5D001F1D2F3D297
:10011A00F4CF0895F8D205D307D331F508D3989BC5
:10012A0002C0FFD201C006D33F01999B02C005D38A
:10013A0001C000D36E0E7F1E9A9B02C001D301C07C
:10014A00F9D26E0E7F1E9B9B03C0E8E0F0E001C06F
:10015A00F1D26E0E7F1EE7E0F0E0E615F70521F416
:10016A00F2D2A8EEB3E0F4D243C2CDD220FE0FC041
:10017A0021FE09C0ECB5FDB5A4E6B1E0EFD2E894E2
:10018A0021F8689422F8EFD2E894F1D20BC0ECB5CA
:10019A00FDB5A0E6B1E0E2D2E6D2EFE0E5BF6894B1
:1001AA0020F821F822FE0BC223FC1AC0E4D206D39F
:1001BA00EFE8F2EC65E77CE385D409F008F407C0C0
:1001CA00FDD2E9E2FCE56FE07DE37CD408F007C0EC
:1001DA00689423F824F8FBD200D36AD204D3EDC181
:1001EA0024FEEBC1C8D26AD2509709F4B1C0E6D254
:1001FA00EAE9F9E969E17EE365D409F008F407C0A0
:10020A00DDD2EAE9F9E969E97EE35CD408F00BC0DA
:10021A00F0D2119719F494D2F1D204C0F4D211F4A5
:10022A008FD2F4D23BC0CAD2E0E0F0E060E07FE3D4
:10023A0049D409F008F407C0C1D2EDECFCEC6CE437
:10024A007FE340D408F00DC0D4D2119721F4ECE03A
:10025A00F0E0D4D205C0D7D219F4ECE0F0E0D6D25F
:10026A001DC026D22BD21C9734F4D5D2DAD2DBD2D7
:10027A00D8D241D2F7CF55D2E093B601F093B70165
:10028A00A6D2E89424F8A9D2E89423F811D2ABD2E2
:10029A006AD268946CD2E89421F88FC1B4D209F07A
:1002AA004BC0C7D2149711F4C9D209F00FC0CCD2EF
:1002BA00119721F4CED2A6E7B1E003C0CFD229F438
:1002CA00D0D2EE0FFF1F11D2ACD22FC0B2D21C97E0
:1002DA0011F4B4D209F010C0B7D2119721F4B9D2EF
:1002EA00A6E7B1E003C0BAD231F4BBD2EE0FFF1FCA
:1002FA00FCD117D2FDD119C09CD2149731F4A09128
:10030A007401B09175011C9709F00FC09DD2119725
:10031A0021F49FD2A6E7B1E003C0A0D231F4A1D262
:10032A00EE0FFF1FE2D109D2E3D1AEE6B1E0ED91C3
:10033A00FD913196FE93EE935CD2119711F4FDD1A3
:10034A0003C061D229F4EDD1E0937001F0937101F9
:10035A00D2D1B4D158970CF430C180D209F019C166
:10036A00A7D1ACD11C975CF456D20D901C905BD2ED
:10037A00F5D3E015F10509F078D2BDD1F2CF7BD2E1
:10038A0009F0FBC0809925C093D198D114973CF409
:10039A00DAD177D2DDD175D294D2ADD1F6CF88D168
:1003AA008DD11897ACF48FD19BD1EA0FFB1F0F01A7
:1003BA0032D2D4D3D001EBD386D18AD1AEE8B1E020
:1003CA00EE0FFF1F92D1CAD3D00192D194D1E8CFB8
:1003DA00D4C0FDD16DD172D11897A4F474D1A6EA14
:1003EA00B1E0EE0FFF1F81D10D901C901CD2B6D345
:1003FA00E015F10529F039D2A6D1A8EC45D2A8D149
:10040A007AD1E9CF38D209F0B8C0E0918601F091EB
:10041A008701A8EEB3E08FD3BF01E0918801F09184
:10042A008901A4E6B0E087D36E0F7F1FE0918A01AD
:10043A00F0918B01AAE0B0E07ED3DB0156D1E091C6
:10044A008C01F0918D01EA0FFB1F20D297989698A4
:10045A0095989498E091BA01F091BB01E431A0E03B
:10046A00FA0721F45ED112D2949A66C0E23DA0E066
:10047A00FA0721F462D10AD2959A5EC0E83CA0E05C
:10048A00FA0731F4E3E0F0E001D2959A949A54C065
:10049A00E433A8E0FA0721F453D1F8D1969A4CC074
:1004AA00E834A8E0FA0729F4969A949AE5E0F0E08D
:1004BA003FC0EA3DA7E0FA0729F4969A959AE6E042
:1004CA00F0E036C0E03DA7E0FA0731F4969A959A33
:1004DA00949AE7E0F0E02CC0E83EA3E0FA0721F4A2
:1004EA00979AE8E0F0E024C0EC3FA3E0FA0729F489
:1004FA00979A949AE9E0F0E01BC0EA3BA4E0FA0775
:10050A0029F4979A959AEAE0F0E012C0E03BA4E059
:10051A00FA0731F4979A959A949AEBE0F0E008C0BA
:10052A00E436A0E0FA0741F4979A969AECE0F0E0F4
:10053A00E093BA01F093BB01EFE3E4BB949902C0E4
:10054A00A89801C0A89A959902C0A99801C0A99A29
:10055A00969902C0AA9801C0AA9A979902C0AB9824
:10056A0001C0AB9AE4D0AC9AA8E095D1AC98A8E0C7
:10057A0092D1A898A998AA98AB989AD09FD01C977C
:10058A0034F449D14ED14FD14CD1B5D0F7CFC9D0DF
:10059A0001C0D3D0E093B601F093B70118D1E89423
:1005AA0024F81BD1E89423F883D01DD1DCD06894B9
:1005BA00DED0689420F8E89421F8E89422F8F4014F
:1005CA0031964F01E8E8F3E1E815F9051CF4A9D0E2
:1005DA00ABD009F001C0AD9AECE7F5E1E815F905F1
:1005EA001CF49FD0A1D009F003C0AD9888249924A7
:1005FA00E991EFBFF991E991B991A99199918991FD
:10060A0079916991F990199009901895AD9853DDEF
:10061A000C2C0D2881F4AD98A0EABFE052D13DD14F
:10062A003FD142D145D19498C29A7BD02F01A4E1FF
:10063A0032D177D06F01819B02C0AA24BB243CD15E
:10064A0041F400240414050421F400240A140B04C0
:10065A0009F00CC066D05F0120D122D125D128D162
:10066A009498AD98C29A5DD02F011EC025D139F455
:10067A0058D05AD021F400240A140B0409F016C0E9
:10068A0050D05F0144245524AD98949AA8E703D129
:10069A009498959AA8E7FFD09598969AA8E7FBD0E0
:1006AA009698FBD09798C298A4E1F5D0B1CFFFCF26
:1006BA00E0E0E0936C01E0936D010895A0916C0174
:1006CA00B0916D010895E0916C01F0916D0108956A
:1006DA00A6EAB1E0EE0FFF1FEA0FFB1F0F01F3CFEF
:1006EA00A0E0B0E0EE0FFF1F0895AE0FBF1F089500
:1006FA00ED93FC930895ACE6B1E0ED91FD9131964E
:10070A00FE93EE9308950A921A92FA926A937A9352
:10071A008A939A93AA93BA93EA93FA93EFB7EA93CE
:10072A000895E1E0F0E00895E415F5050895A2E0E2
:10073A00B0E0C7C0E0E0F0E00895E2E0F0E008953C
:10074A00E4E0F0E00895979A969A959A949A089513
:10075A00B8D0979896989598949808956627772789
:10076A00E9D000D20895E6DFFDBDECBD089520F87A
:10077A00EBE0E5BF0895E0916401F09165016091B5
:10078A00660170916701A0916001B0916101809149
:10079A0062019091630101D1A0916001B091610160
:1007AA00809162019091630148D1E0936801F093CE
:1007BA00690160936A0170936B010895A0916801C1
:1007CA00B091690180916A0190916B010895E0E00E
:1007DA00E093B801E093B9010895A3DFE0937001B3
:1007EA00F09371010895E0E0E0936E01E0936F01E8
:1007FA000895A0917001B09171010895E09372017A
:10080A00F09373010895F5DF12970895E093740148
:10081A00F0937501089557DFA6E7B1E0EE0FFF1FC9
:10082A0064CF88DF65CF4FDFAEE8B1E0EE0FFF1F80
:10083A005CCFA0917201B09173010895A0917401E7
:10084A00B091750114970895A091B601B091B701BE
:10085A000895E0916E01F0916F010895F5DF129706
:10086A000895F7DFAEE8B1E008955BDFE093B801E1
:10087A00F093B9010895E091B801F091B901309768
:10088A000895A4E6B0E00895B0E00895E093BA01AF
:10089A00F093BB010895F8DF14C0979AA8E7FBCF3D
:1008AA009798969AA8E7F7CF9698959AA8E7F3CFDC
:1008BA009598949AA8E7EFCFA0E08199A1E0A0309B
:1008CA000895109639F080EA9FE00197F1F7A8950C
:1008DA001197C9F70895552342F4503811F4E0FFEF
:1008EA0004C03196691F791F6BF050E8572711F43D
:1008FA005F9391C05F3F31F0660F000C5795679583
:10090A00752F08955F9300200AF091C08AC050E8BD
:10091A00192E1522880F991F9527550F879550E88C
:10092A00072E0522660F771F7527550F67950895BD
:10093A00689401C0E894309760407040B1F0002498
:10094A0026F0772312F40094E1D0172E7EE11120CD
:10095A0032F07A95EE0FFF1F661F111CF9CFEF2FA9
:10096A00F62F612D5F93C1DF5F9108954F93AF0119
:10097A00FD01DA01AB01BC01CA01402D012C142E84
:10098A004F910895EA0FFB1F681F0895E095F095AF
:10099A006095EF5FFF4F6F4F08955F93B8DF903810
:1009AA0039F1703821F1572F591B2BF112F4DEDF80
:1009BA00FACF583118F0AA27BB278827583028F0D1
:1009CA00AB2FB82F88275850F9CF552329F0869591
:1009DA00B795A7955A95D9F7502D512572F0D2DFC0
:1009EA0038F46795F795E795739513F420C0BEDF41
:1009FA007CDF5F910895D8F7FBCFEA1BFB0B680BEE
:100A0A0051F010F40094C2DF662392F3EE0FFF1F39
:100A1A00661F7A95CBF7EE27FF27662777275F9120
:100A2A000895EFEFFFEF6FE77FEF5F910895EFEF24
:100A3A00FFEF6FE77FE75F9108955F9368DF703894
:100A4A0021F411200AF4EDCFF2CF903809F4E3CF64
:100A5A0001240894970B1BF4D4F30020F3CF792FC9
:100A6A001F932F933F934F93112411272227332744
:100A7A004427552790E2AE17BF078607410730F093
:100A8A00AE1BBF0B860B410B089401C08894551FFF
:100A9A00221F331F111CAA1FBB1F881F441F9A95B0
:100AAA0051F7F901612D4F913F912F911F916623C3
:100ABA0032F0550FEE1FFF1F661F7A9543F20BDFC8
:100ACA005F91089599239AF0772342F0971748F097
:100ADA0029F4AE17BF07860720F031F0989488945E
:100AEA0008959894089408951894889408957723FB
:100AFA00C2F7971798F3A9F7EA17FB07680788F36D
:100B0A0099F3ECCFF195E195F0400895F095609551
:100B1A007095E195FF4F6F4F7F4F08956F2F660FC6
:100B2A00660B762F0895FA9FF02DEB9FF00DEA9F42
:100B3A00E02DF10D089504D0F6DF0EF4E3DF0895F9
:100B4A00E894F7FF02C0DEDF6894B7FF06C0A095FD
:100B5A00B095119600F8039400FA0895ED91FC916E
:100B6A0011970895ED93FD936D937C9308951196D3
:100B7A0002D0FE2F1197E199FECFFF93FFB7F894A9
:100B8A00AEBBBFBBE09AEDB3FFBFFF91089507D09C
:100B9A001196EF93EF2F03D0EF9111970895E19BF0
:100BAA0002C0A895FCCF9FB7F894AEBBBFBBE09A32
:100BBA008DB3E81719F0EDBBE29AE19A9FBF089549
:00000001FF
